{"abi":[{"type":"function","name":"HTS","inputs":[],"outputs":[{"name":"","type":"address","internalType":"address"}],"stateMutability":"view"},{"type":"function","name":"SUCCESS","inputs":[],"outputs":[{"name":"","type":"int64","internalType":"int64"}],"stateMutability":"view"},{"type":"function","name":"createToken","inputs":[{"name":"name","type":"string","internalType":"string"},{"name":"symbol","type":"string","internalType":"string"},{"name":"initialSupply","type":"uint256","internalType":"uint256"},{"name":"decimals","type":"uint8","internalType":"uint8"}],"outputs":[{"name":"tokenAddress","type":"address","internalType":"address"}],"stateMutability":"payable"},{"type":"function","name":"mintToken","inputs":[{"name":"token","type":"address","internalType":"address"},{"name":"amount","type":"uint256","internalType":"uint256"}],"outputs":[{"name":"newTotalSupply","type":"int64","internalType":"int64"}],"stateMutability":"nonpayable"},{"type":"event","name":"TokenCreated","inputs":[{"name":"tokenAddress","type":"address","indexed":true,"internalType":"address"},{"name":"name","type":"string","indexed":false,"internalType":"string"},{"name":"symbol","type":"string","indexed":false,"internalType":"string"}],"anonymous":false},{"type":"event","name":"TokenMinted","inputs":[{"name":"tokenAddress","type":"address","indexed":true,"internalType":"address"},{"name":"newTotalSupply","type":"int64","indexed":false,"internalType":"int64"}],"anonymous":false},{"type":"error","name":"HtsCreateFailed","inputs":[{"name":"responseCode","type":"int64","internalType":"int64"}]},{"type":"error","name":"HtsMintFailed","inputs":[{"name":"responseCode","type":"int64","internalType":"int64"}]}],"bytecode":{"object":"0x6080604052348015600e575f5ffd5b506111178061001c5f395ff3fe60806040526004361061003e575f3560e01c80631bc921621461004257806379c650681461006c578063b64acddd146100a8578063d0a6d1a6146100d8575b5f5ffd5b34801561004d575f5ffd5b50610056610102565b6040516100639190610701565b60405180910390f35b348015610077575f5ffd5b50610092600480360381019061008d9190610788565b610108565b60405161009f91906107e1565b60405180910390f35b6100c260048036038101906100bd9190610891565b610283565b6040516100cf9190610701565b60405180910390f35b3480156100e3575f5ffd5b506100ec6104be565b6040516100f991906107e1565b60405180910390f35b61016781565b5f5f5f61016773ffffffffffffffffffffffffffffffffffffffff1663e0f4059a86865f67ffffffffffffffff81111561014557610144610934565b5b60405190808252806020026020018201604052801561017857816020015b60608152602001906001900390816101635790505b506040518463ffffffff1660e01b815260040161019793929190610a8c565b5f604051808303815f875af11580156101b2573d5f5f3e3d5ffd5b505050506040513d5f823e3d601f19601f820116820180604052508101906101da9190610bfd565b5091509150601660070b8260070b1461022a57816040517fa764c03b00000000000000000000000000000000000000000000000000000000815260040161022191906107e1565b60405180910390fd5b8473ffffffffffffffffffffffffffffffffffffffff167fc8abfbe1be6e825816b1d268989f4c5d94321dff0b04dd5e695f912d51e53eae8260405161027091906107e1565b60405180910390a2809250505092915050565b5f5f60405180610120016040528089898080601f0160208091040260200160405190810160405280939291908181526020018383808284375f81840152601f19601f82011690508083019250505050505050815260200187878080601f0160208091040260200160405190810160405280939291908181526020018383808284375f81840152601f19601f8201169050808301925050505050505081526020013373ffffffffffffffffffffffffffffffffffffffff16815260200160405180602001604052805f81525081526020015f151581526020015f60070b81526020015f151581526020016103746104c3565b81526020016103816105c8565b81525090505f5f61016773ffffffffffffffffffffffffffffffffffffffff16630fb65bf33485898960ff166040518563ffffffff1660e01b81526004016103cb93929190610fa3565b604080518083038185885af11580156103e6573d5f5f3e3d5ffd5b50505050506040513d601f19601f8201168201806040525081019061040b9190610ff3565b91509150601660070b8260070b1461045a57816040517f254cdbed00000000000000000000000000000000000000000000000000000000815260040161045191906107e1565b60405180910390fd5b8073ffffffffffffffffffffffffffffffffffffffff167fffc04f682c7b287e4b552dacd4b833d7c33dc0549cd6da84388408e4830c05628b8b8b8b6040516104a6949392919061107b565b60405180910390a28093505050509695505050505050565b601681565b60605f600167ffffffffffffffff8111156104e1576104e0610934565b5b60405190808252806020026020018201604052801561051a57816020015b61050761060f565b8152602001906001900390816104ff5790505b5090506040518060400160405280601081526020016040518060a001604052805f151581526020013073ffffffffffffffffffffffffffffffffffffffff16815260200160405180602001604052805f815250815260200160405180602001604052805f81525081526020015f73ffffffffffffffffffffffffffffffffffffffff16815250815250815f815181106105b6576105b56110b4565b5b60200260200101819052508091505090565b6105d061062e565b60405180606001604052805f60070b81526020013373ffffffffffffffffffffffffffffffffffffffff1681526020016278645060070b815250905090565b60405180604001604052805f8152602001610628610668565b81525090565b60405180606001604052805f60070b81526020015f73ffffffffffffffffffffffffffffffffffffffff1681526020015f60070b81525090565b6040518060a001604052805f151581526020015f73ffffffffffffffffffffffffffffffffffffffff16815260200160608152602001606081526020015f73ffffffffffffffffffffffffffffffffffffffff1681525090565b5f73ffffffffffffffffffffffffffffffffffffffff82169050919050565b5f6106eb826106c2565b9050919050565b6106fb816106e1565b82525050565b5f6020820190506107145f8301846106f2565b92915050565b5f604051905090565b5f5ffd5b5f5ffd5b610734816106e1565b811461073e575f5ffd5b50565b5f8135905061074f8161072b565b92915050565b5f819050919050565b61076781610755565b8114610771575f5ffd5b50565b5f813590506107828161075e565b92915050565b5f5f6040838503121561079e5761079d610723565b5b5f6107ab85828601610741565b92505060206107bc85828601610774565b9150509250929050565b5f8160070b9050919050565b6107db816107c6565b82525050565b5f6020820190506107f45f8301846107d2565b92915050565b5f5ffd5b5f5ffd5b5f5ffd5b5f5f83601f84011261081b5761081a6107fa565b5b8235905067ffffffffffffffff811115610838576108376107fe565b5b60208301915083600182028301111561085457610853610802565b5b9250929050565b5f60ff82169050919050565b6108708161085b565b811461087a575f5ffd5b50565b5f8135905061088b81610867565b92915050565b5f5f5f5f5f5f608087890312156108ab576108aa610723565b5b5f87013567ffffffffffffffff8111156108c8576108c7610727565b5b6108d489828a01610806565b9650965050602087013567ffffffffffffffff8111156108f7576108f6610727565b5b61090389828a01610806565b9450945050604061091689828a01610774565b925050606061092789828a0161087d565b9150509295509295509295565b7f4e487b71000000000000000000000000000000000000000000000000000000005f52604160045260245ffd5b5f81519050919050565b5f82825260208201905092915050565b5f819050602082019050919050565b5f81519050919050565b5f82825260208201905092915050565b8281835e5f83830152505050565b5f601f19601f8301169050919050565b5f6109cc8261098a565b6109d68185610994565b93506109e68185602086016109a4565b6109ef816109b2565b840191505092915050565b5f610a0583836109c2565b905092915050565b5f602082019050919050565b5f610a2382610961565b610a2d818561096b565b935083602082028501610a3f8561097b565b805f5b85811015610a7a5784840389528151610a5b85826109fa565b9450610a6683610a0d565b925060208a01995050600181019050610a42565b50829750879550505050505092915050565b5f606082019050610a9f5f8301866106f2565b610aac60208301856107d2565b8181036040830152610abe8184610a19565b9050949350505050565b610ad1816107c6565b8114610adb575f5ffd5b50565b5f81519050610aec81610ac8565b92915050565b610afb826109b2565b810181811067ffffffffffffffff82111715610b1a57610b19610934565b5b80604052505050565b5f610b2c61071a565b9050610b388282610af2565b919050565b5f67ffffffffffffffff821115610b5757610b56610934565b5b602082029050602081019050919050565b5f610b7a610b7584610b3d565b610b23565b90508083825260208201905060208402830185811115610b9d57610b9c610802565b5b835b81811015610bc65780610bb28882610ade565b845260208401935050602081019050610b9f565b5050509392505050565b5f82601f830112610be457610be36107fa565b5b8151610bf4848260208601610b68565b91505092915050565b5f5f5f60608486031215610c1457610c13610723565b5b5f610c2186828701610ade565b9350506020610c3286828701610ade565b925050604084015167ffffffffffffffff811115610c5357610c52610727565b5b610c5f86828701610bd0565b9150509250925092565b5f81519050919050565b5f82825260208201905092915050565b5f610c8d82610c69565b610c978185610c73565b9350610ca78185602086016109a4565b610cb0816109b2565b840191505092915050565b610cc4816106e1565b82525050565b5f8115159050919050565b610cde81610cca565b82525050565b610ced816107c6565b82525050565b5f81519050919050565b5f82825260208201905092915050565b5f819050602082019050919050565b610d2581610755565b82525050565b5f60a083015f830151610d405f860182610cd5565b506020830151610d536020860182610cbb565b5060408301518482036040860152610d6b82826109c2565b91505060608301518482036060860152610d8582826109c2565b9150506080830151610d9a6080860182610cbb565b508091505092915050565b5f604083015f830151610dba5f860182610d1c565b5060208301518482036020860152610dd28282610d2b565b9150508091505092915050565b5f610dea8383610da5565b905092915050565b5f602082019050919050565b5f610e0882610cf3565b610e128185610cfd565b935083602082028501610e2485610d0d565b805f5b85811015610e5f5784840389528151610e408582610ddf565b9450610e4b83610df2565b925060208a01995050600181019050610e27565b50829750879550505050505092915050565b606082015f820151610e855f850182610ce4565b506020820151610e986020850182610cbb565b506040820151610eab6040850182610ce4565b50505050565b5f61016083015f8301518482035f860152610ecc8282610c83565b91505060208301518482036020860152610ee68282610c83565b9150506040830151610efb6040860182610cbb565b5060608301518482036060860152610f138282610c83565b9150506080830151610f286080860182610cd5565b5060a0830151610f3b60a0860182610ce4565b5060c0830151610f4e60c0860182610cd5565b5060e083015184820360e0860152610f668282610dfe565b915050610100830151610f7d610100860182610e71565b508091505092915050565b5f8160030b9050919050565b610f9d81610f88565b82525050565b5f6060820190508181035f830152610fbb8186610eb1565b9050610fca60208301856107d2565b610fd76040830184610f94565b949350505050565b5f81519050610fed8161072b565b92915050565b5f5f6040838503121561100957611008610723565b5b5f61101685828601610ade565b925050602061102785828601610fdf565b9150509250929050565b5f82825260208201905092915050565b828183375f83830152505050565b5f61105a8385611031565b9350611067838584611041565b611070836109b2565b840190509392505050565b5f6040820190508181035f83015261109481868861104f565b905081810360208301526110a981848661104f565b905095945050505050565b7f4e487b71000000000000000000000000000000000000000000000000000000005f52603260045260245ffdfea26469706673582212205c4e55c8d738c68456376ed94274b1b1f2a3cbe4c0209400ed4585cee1a1c9af64736f6c63430008210033","linkReferences":{}},"methodIdentifiers":{"HTS()":"1bc92162","SUCCESS()":"d0a6d1a6","createToken(string,string,uint256,uint8)":"b64acddd","mintToken(address,uint256)":"79c65068"},"id":1}