{
  "address": "0x6620C821c5eEEEe515eFc8D59c5c431e96Be9d59",
  "abi": [
    {
      "inputs": [
        {
          "internalType": "int64",
          "name": "responseCode",
          "type": "int64"
        }
      ],
      "name": "HtsCreateFailed",
      "type": "error"
    },
    {
      "inputs": [
        {
          "internalType": "int64",
          "name": "responseCode",
          "type": "int64"
        }
      ],
      "name": "HtsMintFailed",
      "type": "error"
    },
    {
      "anonymous": false,
      "inputs": [
        {
          "indexed": true,
          "internalType": "address",
          "name": "tokenAddress",
          "type": "address"
        },
        {
          "indexed": false,
          "internalType": "string",
          "name": "name",
          "type": "string"
        },
        {
          "indexed": false,
          "internalType": "string",
          "name": "symbol",
          "type": "string"
        }
      ],
      "name": "TokenCreated",
      "type": "event"
    },
    {
      "anonymous": false,
      "inputs": [
        {
          "indexed": true,
          "internalType": "address",
          "name": "tokenAddress",
          "type": "address"
        },
        {
          "indexed": false,
          "internalType": "int64",
          "name": "newTotalSupply",
          "type": "int64"
        }
      ],
      "name": "TokenMinted",
      "type": "event"
    },
    {
      "inputs": [],
      "name": "HTS",
      "outputs": [
        {
          "internalType": "address",
          "name": "",
          "type": "address"
        }
      ],
      "stateMutability": "view",
      "type": "function"
    },
    {
      "inputs": [],
      "name": "SUCCESS",
      "outputs": [
        {
          "internalType": "int64",
          "name": "",
          "type": "int64"
        }
      ],
      "stateMutability": "view",
      "type": "function"
    },
    {
      "inputs": [
        {
          "internalType": "string",
          "name": "name",
          "type": "string"
        },
        {
          "internalType": "string",
          "name": "symbol",
          "type": "string"
        },
        {
          "internalType": "uint256",
          "name": "initialSupply",
          "type": "uint256"
        },
        {
          "internalType": "uint8",
          "name": "decimals",
          "type": "uint8"
        }
      ],
      "name": "createToken",
      "outputs": [
        {
          "internalType": "address",
          "name": "tokenAddress",
          "type": "address"
        }
      ],
      "stateMutability": "payable",
      "type": "function"
    },
    {
      "inputs": [
        {
          "internalType": "address",
          "name": "token",
          "type": "address"
        },
        {
          "internalType": "uint256",
          "name": "amount",
          "type": "uint256"
        }
      ],
      "name": "mintToken",
      "outputs": [
        {
          "internalType": "int64",
          "name": "newTotalSupply",
          "type": "int64"
        }
      ],
      "stateMutability": "nonpayable",
      "type": "function"
    }
  ],
  "transactionHash": "0x6746c2fcb08db515a1c8ca834e8baf71f9d9f7a94184ab14cad92641598918e1",
  "args": [],
  "numDeployments": 1,
  "solcInputHash": "b709091280b2eef82b78f225add1c6b0",
  "bytecode": "0x6080604052348015600f57600080fd5b50610ad28061001f6000396000f3fe60806040526004361061003f5760003560e01c80631bc921621461004457806379c6506814610077578063b64acddd146100aa578063d0a6d1a6146100bd575b600080fd5b34801561005057600080fd5b5061005a61016781565b6040516001600160a01b0390911681526020015b60405180910390f35b34801561008357600080fd5b5061009761009236600461050d565b6100d2565b60405160079190910b815260200161006e565b61005a6100b8366004610582565b6101fb565b3480156100c957600080fd5b50610097601681565b6000808061016763e0f4059a86868460405190808252806020026020018201604052801561011457816020015b60608152602001906001900390816100ff5790505b506040518463ffffffff1660e01b815260040161013393929190610675565b6000604051808303816000875af1158015610152573d6000803e3d6000fd5b505050506040513d6000823e601f3d908101601f1916820160405261017a919081019061070a565b5091509150601660070b8260070b146101b15760405163a764c03b60e01b8152600783900b60048201526024015b60405180910390fd5b604051600782900b81526001600160a01b038616907fc8abfbe1be6e825816b1d268989f4c5d94321dff0b04dd5e695f912d51e53eae9060200160405180910390a2949350505050565b60008060405180610120016040528089898080601f016020809104026020016040519081016040528093929190818152602001838380828437600092019190915250505090825250604080516020601f8a0181900481028201810190925288815291810191908990899081908401838280828437600092018290525093855250503360208085019190915260408051918201815283825284015250606082018190526080820181905260a082015260c0016102b46103ee565b81526040805160608082018352600080835260208381018290529284018190528351918201845281523381830152627864509281019290925290910152604051630fb65bf360e01b8152909150600090819061016790630fb65bf39034906103279087908b9060ff8c16906004016108cc565b604080518083038185885af1158015610344573d6000803e3d6000fd5b50505050506040513d601f19601f8201168201806040525081019061036991906109f4565b91509150601660070b8260070b1461039a5760405163254cdbed60e01b8152600783900b60048201526024016101a8565b806001600160a01b03167fffc04f682c7b287e4b552dacd4b833d7c33dc0549cd6da84388408e4830c05628b8b8b8b6040516103d99493929190610a54565b60405180910390a29998505050505050505050565b60408051600180825281830190925260609160009190816020015b610411610498565b81526020019060019003908161040957505060408051808201825260108152815160a081018352600080825230602083810191909152845180820186528281528386015284518082019095528185526060830194909452608082018190529282015282519293509183919061048857610488610a86565b6020908102919091010152919050565b6040518060400160405280600081526020016104f06040518060a0016040528060001515815260200160006001600160a01b03168152602001606081526020016060815260200160006001600160a01b031681525090565b905290565b6001600160a01b038116811461050a57600080fd5b50565b6000806040838503121561052057600080fd5b823561052b816104f5565b946020939093013593505050565b60008083601f84011261054b57600080fd5b50813567ffffffffffffffff81111561056357600080fd5b60208301915083602082850101111561057b57600080fd5b9250929050565b6000806000806000806080878903121561059b57600080fd5b863567ffffffffffffffff8111156105b257600080fd5b6105be89828a01610539565b909750955050602087013567ffffffffffffffff8111156105de57600080fd5b6105ea89828a01610539565b90955093505060408701359150606087013560ff8116811461060b57600080fd5b809150509295509295509295565b634e487b7160e01b600052604160045260246000fd5b6000815180845260005b8181101561065557602081850181015186830182015201610639565b506000602082860101526020601f19601f83011685010191505092915050565b60006060820160018060a01b03861683528460070b60208401526060604084015280845180835260808501915060808160051b86010192506020860160005b828110156106e557607f198786030184526106d085835161062f565b945060209384019391909101906001016106b4565b509298975050505050505050565b8051600781900b811461070557600080fd5b919050565b60008060006060848603121561071f57600080fd5b610728846106f3565b9250610736602085016106f3565b9150604084015167ffffffffffffffff81111561075257600080fd5b8401601f8101861361076357600080fd5b805167ffffffffffffffff81111561077d5761077d610619565b8060051b604051601f19603f830116810181811067ffffffffffffffff821117156107aa576107aa610619565b6040529182526020818401810192908101898411156107c857600080fd5b6020850194505b838510156107ee576107e0856106f3565b8152602094850194016107cf565b50809450505050509250925092565b600082825180855260208501945060208160051b8301016020850160005b838110156108c057848303601f1901885281518051845260209081015160408286018190528151151581870152918101516001600160a01b031660608601529081015160a0608086015261087260e086018261062f565b90506060820151603f198683030160a087015261088f828261062f565b608093909301516001600160a01b031660c0969096019590955250602098890198909350919091019060010161081b565b50909695505050505050565b606081526000845161016060608401526108ea6101c084018261062f565b90506020860151605f19848303016080850152610907828261062f565b915050604086015161092460a08501826001600160a01b03169052565b506060860151838203605f190160c0850152610940828261062f565b915050608086015161095660e085018215159052565b5060a086015161096c61010085018260070b9052565b5060c0860151151561012084015260e0860151838203605f190161014085015261099682826107fd565b6101008801518051600790810b6101608801526020808301516001600160a01b0316610180890152604090920151810b6101a088015288900b9086015292506109dd915050565b6109ec604083018460030b9052565b949350505050565b60008060408385031215610a0757600080fd5b610a10836106f3565b91506020830151610a20816104f5565b809150509250929050565b81835281816020850137506000828201602090810191909152601f909101601f19169091010190565b604081526000610a68604083018688610a2b565b8281036020840152610a7b818587610a2b565b979650505050505050565b634e487b7160e01b600052603260045260246000fdfea264697066735822122064689a0caf15d2a1277b4823735462bf7a232bdee24bc6ad02d481bfc6d8e08864736f6c634300081c0033",
  "devdoc": {
    "kind": "dev",
    "methods": {
      "createToken(string,string,uint256,uint8)": {
        "params": {
          "initialSupply": "In smallest units (e.g. 10000 * 10**decimals for 10000 tokens)."
        }
      }
    },
    "version": 1
  },
  "userdoc": {
    "kind": "user",
    "methods": {
      "SUCCESS()": {
        "notice": "HTS response code for success"
      },
      "createToken(string,string,uint256,uint8)": {
        "notice": "Creates a fungible HTS token. Treasury and initial supply recipient is msg.sender. Sends msg.value as HBAR to the HTS precompile (required for creation fee)."
      },
      "mintToken(address,uint256)": {
        "notice": "Mints additional supply to the token's treasury. Caller must hold supply key."
      }
    },
    "notice": "Creates and mints fungible HTS tokens via the HTS precompile at 0x167.",
    "version": 1
  },
  "storageLayout": {
    "storage": [],
    "types": null
  }
}